{
  "contractName": "CErc20Mock",
  "abi": [
    {
      "constant": true,
      "inputs": [],
      "name": "underlying",
      "outputs": [
        {
          "name": "",
          "type": "address"
        }
      ],
      "payable": false,
      "stateMutability": "view",
      "type": "function"
    },
    {
      "constant": false,
      "inputs": [
        {
          "name": "_token",
          "type": "address"
        },
        {
          "name": "_supplyRateMantissa",
          "type": "uint256"
        }
      ],
      "name": "initialize",
      "outputs": [],
      "payable": false,
      "stateMutability": "nonpayable",
      "type": "function"
    },
    {
      "constant": false,
      "inputs": [
        {
          "name": "amount",
          "type": "uint256"
        }
      ],
      "name": "mint",
      "outputs": [
        {
          "name": "",
          "type": "uint256"
        }
      ],
      "payable": false,
      "stateMutability": "nonpayable",
      "type": "function"
    },
    {
      "constant": true,
      "inputs": [],
      "name": "getCash",
      "outputs": [
        {
          "name": "",
          "type": "uint256"
        }
      ],
      "payable": false,
      "stateMutability": "view",
      "type": "function"
    },
    {
      "constant": false,
      "inputs": [
        {
          "name": "requestedAmount",
          "type": "uint256"
        }
      ],
      "name": "redeemUnderlying",
      "outputs": [
        {
          "name": "",
          "type": "uint256"
        }
      ],
      "payable": false,
      "stateMutability": "nonpayable",
      "type": "function"
    },
    {
      "constant": false,
      "inputs": [
        {
          "name": "account",
          "type": "address"
        }
      ],
      "name": "balanceOfUnderlying",
      "outputs": [
        {
          "name": "",
          "type": "uint256"
        }
      ],
      "payable": false,
      "stateMutability": "nonpayable",
      "type": "function"
    },
    {
      "constant": true,
      "inputs": [],
      "name": "supplyRatePerBlock",
      "outputs": [
        {
          "name": "",
          "type": "uint256"
        }
      ],
      "payable": false,
      "stateMutability": "view",
      "type": "function"
    }
  ],
  "bytecode": "0x608060405234801561001057600080fd5b5061058c806100206000396000f3fe6080604052600436106100695763ffffffff60e060020a6000350416633af9e669811461006e5780633b1d21a2146100b35780636f307dc3146100c8578063852a12e3146100f9578063a0712d6814610123578063ae9d70b01461014d578063cd6dc68714610162575b600080fd5b34801561007a57600080fd5b506100a16004803603602081101561009157600080fd5b5035600160a060020a031661019d565b60408051918252519081900360200190f35b3480156100bf57600080fd5b506100a16101c0565b3480156100d457600080fd5b506100dd61023f565b60408051600160a060020a039092168252519081900360200190f35b34801561010557600080fd5b506100a16004803603602081101561011c57600080fd5b503561024e565b34801561012f57600080fd5b506100a16004803603602081101561014657600080fd5b5035610394565b34801561015957600080fd5b506100a1610404565b34801561016e57600080fd5b5061019b6004803603604081101561018557600080fd5b50600160a060020a03813516906020013561040a565b005b600160a060020a0316600090815260346020526040902054606460789091020490565b6033546040805160e060020a6370a082310281523060048201529051600092600160a060020a0316916370a08231916024808301926020929190829003018186803b15801561020e57600080fd5b505afa158015610222573d6000803e3d6000fd5b505050506040513d602081101561023857600080fd5b5051905090565b603354600160a060020a031681565b3360009081526034602052604081205481106102b4576040805160e560020a62461bcd02815260206004820152601d60248201527f796f75206d757374206861766520737570706c69656420746f6b656e73000000604482015290519081900360640190fd5b6033546040805160e060020a63a9059cbb028152336004820152602481018590529051600160a060020a039092169163a9059cbb916044808201926020929091908290030181600087803b15801561030b57600080fd5b505af115801561031f573d6000803e3d6000fd5b505050506040513d602081101561033557600080fd5b5051151561038c576040805160e560020a62461bcd0281526020600482015260196024820152603860020a78636f756c64206e6f74207472616e7366657220746f6b656e7302604482015290519081900360640190fd5b506000919050565b336000818152603460209081526040808320859055603354815160e060020a6323b872dd02815260048101959095523060248601526044850186905290519293600160a060020a03909116926323b872dd9260648084019391929182900301818787803b15801561030b57600080fd5b60355490565b600054610100900460ff1680610423575061042361055a565b80610431575060005460ff16155b15156104a1576040805160e560020a62461bcd02815260206004820152602e60248201527f436f6e747261637420696e7374616e63652068617320616c72656164792062656044820152609260020a6d195b881a5b9a5d1a585b1a5e995902606482015290519081900360840190fd5b60008054600161010061ff00198316811760ff1916919091179092550460ff16600160a060020a038316151561051b576040805160e560020a62461bcd0281526020600482015260146024820152606260020a731d1bdad95b881a5cc81b9bdd081919599a5b995902604482015290519081900360640190fd5b60338054600160a060020a03909416600160a060020a031990941693909317909255603555600080549115156101000261ff0019909216919091179055565b303b159056fea165627a7a72305820913a67d5e5865486ab563dda73a09569bef8974d3f9f5f5256cb135f4274406d0029",
  "source": "pragma solidity ^0.5.0;\n\nimport \"./ICErc20.sol\";\nimport \"zos-lib/contracts/Initializable.sol\";\nimport \"openzeppelin-eth/contracts/token/ERC20/IERC20.sol\";\n\ncontract CErc20Mock is Initializable, ICErc20 {\n  mapping(address => uint256) ownerTokenAmounts;\n\n  uint __supplyRateMantissa;\n\n  function initialize (address _token, uint256 _supplyRateMantissa) public initializer {\n    require(_token != address(0), \"token is not defined\");\n    underlying = _token;\n    __supplyRateMantissa = _supplyRateMantissa;\n  }\n\n  function mint(uint amount) external returns (uint) {\n    ownerTokenAmounts[msg.sender] = amount;\n    require(IERC20(underlying).transferFrom(msg.sender, address(this), amount), \"could not transfer tokens\");\n    return 0;\n  }\n\n  function getCash() external view returns (uint) {\n    return IERC20(underlying).balanceOf(address(this));\n  }\n\n  function redeemUnderlying(uint requestedAmount) external returns (uint) {\n    require(ownerTokenAmounts[msg.sender] > 0, \"you must have supplied tokens\");\n    require(IERC20(underlying).transfer(msg.sender, requestedAmount), \"could not transfer tokens\");\n    return 0;\n  }\n\n  function balanceOfUnderlying(address account) external returns (uint) {\n    return (ownerTokenAmounts[account] * 120) / 100;\n  }\n\n  function supplyRatePerBlock() external view returns (uint) {\n    return __supplyRateMantissa;\n  }\n}\n",
  "sourcePath": "pooltogether-contracts/contracts/compound/CErc20Mock.sol",
  "compiler": {
    "name": "solc",
    "version": "0.5.0+commit.1d4f565a.Emscripten.clang"
  },
  "schemaVersion": "3.0.2",
  "updatedAt": "2019-08-25T01:47:11.574Z",
  "devdoc": {
    "methods": {}
  },
  "userdoc": {
    "methods": {}
  }
}