{
  "contractName": "Migrations",
  "abi": [
    {
      "constant": true,
      "inputs": [],
      "name": "last_completed_migration",
      "outputs": [
        {
          "name": "",
          "type": "uint256"
        }
      ],
      "payable": false,
      "stateMutability": "view",
      "type": "function",
      "signature": "0x445df0ac"
    },
    {
      "constant": false,
      "inputs": [],
      "name": "renounceOwnership",
      "outputs": [],
      "payable": false,
      "stateMutability": "nonpayable",
      "type": "function",
      "signature": "0x715018a6"
    },
    {
      "constant": true,
      "inputs": [],
      "name": "owner",
      "outputs": [
        {
          "name": "",
          "type": "address"
        }
      ],
      "payable": false,
      "stateMutability": "view",
      "type": "function",
      "signature": "0x8da5cb5b"
    },
    {
      "constant": true,
      "inputs": [],
      "name": "isOwner",
      "outputs": [
        {
          "name": "",
          "type": "bool"
        }
      ],
      "payable": false,
      "stateMutability": "view",
      "type": "function",
      "signature": "0x8f32d59b"
    },
    {
      "constant": false,
      "inputs": [
        {
          "name": "sender",
          "type": "address"
        }
      ],
      "name": "initialize",
      "outputs": [],
      "payable": false,
      "stateMutability": "nonpayable",
      "type": "function",
      "signature": "0xc4d66de8"
    },
    {
      "constant": false,
      "inputs": [
        {
          "name": "newOwner",
          "type": "address"
        }
      ],
      "name": "transferOwnership",
      "outputs": [],
      "payable": false,
      "stateMutability": "nonpayable",
      "type": "function",
      "signature": "0xf2fde38b"
    },
    {
      "anonymous": false,
      "inputs": [
        {
          "indexed": true,
          "name": "previousOwner",
          "type": "address"
        },
        {
          "indexed": true,
          "name": "newOwner",
          "type": "address"
        }
      ],
      "name": "OwnershipTransferred",
      "type": "event",
      "signature": "0x8be0079c531659141344cd1fd0a4f28419497f9722a3daafe3b4186f6b6457e0"
    },
    {
      "constant": false,
      "inputs": [
        {
          "name": "completed",
          "type": "uint256"
        }
      ],
      "name": "setCompleted",
      "outputs": [],
      "payable": false,
      "stateMutability": "nonpayable",
      "type": "function",
      "signature": "0xfdacd576"
    },
    {
      "constant": false,
      "inputs": [
        {
          "name": "new_address",
          "type": "address"
        }
      ],
      "name": "upgrade",
      "outputs": [],
      "payable": false,
      "stateMutability": "nonpayable",
      "type": "function",
      "signature": "0x0900f010"
    }
  ],
  "bytecode": "0x608060405234801561001057600080fd5b506104bc806100206000396000f3fe6080604052600436106100745763ffffffff60e060020a6000350416630900f0108114610079578063445df0ac146100ae578063715018a6146100d55780638da5cb5b146100ea5780638f32d59b1461011b578063c4d66de814610144578063f2fde38b14610177578063fdacd576146101aa575b600080fd5b34801561008557600080fd5b506100ac6004803603602081101561009c57600080fd5b5035600160a060020a03166101d4565b005b3480156100ba57600080fd5b506100c3610253565b60408051918252519081900360200190f35b3480156100e157600080fd5b506100ac610259565b3480156100f657600080fd5b506100ff6102a4565b60408051600160a060020a039092168252519081900360200190f35b34801561012757600080fd5b506101306102b3565b604080519115158252519081900360200190f35b34801561015057600080fd5b506100ac6004803603602081101561016757600080fd5b5035600160a060020a03166102c4565b34801561018357600080fd5b506100ac6004803603602081101561019a57600080fd5b5035600160a060020a03166103d4565b3480156101b657600080fd5b506100ac600480360360208110156101cd57600080fd5b50356103f3565b6101dc6102b3565b15156101e757600080fd5b600081905080600160a060020a031663fdacd5766066546040518263ffffffff1660e060020a02815260040180828152602001915050600060405180830381600087803b15801561023757600080fd5b505af115801561024b573d6000803e3d6000fd5b505050505050565b60665481565b6102616102b3565b151561026c57600080fd5b603354604051600091600160a060020a031690600080516020610471833981519152908390a360338054600160a060020a0319169055565b603354600160a060020a031690565b603354600160a060020a0316331490565b600054610100900460ff16806102dd57506102dd61040b565b806102eb575060005460ff16155b151561035b576040805160e560020a62461bcd02815260206004820152602e60248201527f436f6e747261637420696e7374616e63652068617320616c72656164792062656044820152609260020a6d195b881a5b9a5d1a585b1a5e995902606482015290519081900360840190fd5b60008054600161010061ff00198316811760ff191691909117835560338054600160a060020a031916600160a060020a0386811691909117918290556040519290930460ff169392169190600080516020610471833981519152908290a3600080549115156101000261ff001990921691909117905550565b6103dc6102b3565b15156103e757600080fd5b6103f081610411565b50565b6103fb6102b3565b151561040657600080fd5b606655565b303b1590565b600160a060020a038116151561042657600080fd5b603354604051600160a060020a0380841692169060008051602061047183398151915290600090a360338054600160a060020a031916600160a060020a039290921691909117905556fe8be0079c531659141344cd1fd0a4f28419497f9722a3daafe3b4186f6b6457e0a165627a7a72305820d7b3ed42697d2fc156e2bab326e3d9fc2bbe74471e0a68ea810742ac077ead970029",
  "source": "// Migrations.sol\n\npragma solidity ^0.5.0;\n\nimport \"openzeppelin-eth/contracts/ownership/Ownable.sol\";\n\ncontract Migrations is Ownable {\n  uint public last_completed_migration;\n\n  function setCompleted(uint completed) public onlyOwner {\n    last_completed_migration = completed;\n  }\n\n  function upgrade(address new_address) public onlyOwner {\n    Migrations upgraded = Migrations(new_address);\n    upgraded.setCompleted(last_completed_migration);\n  }\n}\n",
  "sourcePath": "/Users/julien/Projects/tmp/pooltogether-contracts-mock-v1/contracts/Migrations.sol",
  "compiler": {
    "name": "solc",
    "version": "0.5.0+commit.1d4f565a.Emscripten.clang"
  },
  "schemaVersion": "3.0.2",
  "updatedAt": "2019-08-25T01:51:03.330Z",
  "devdoc": {
    "methods": {
      "initialize(address)": {
        "details": "The Ownable constructor sets the original `owner` of the contract to the sender account."
      },
      "isOwner()": {
        "return": "true if `msg.sender` is the owner of the contract."
      },
      "owner()": {
        "return": "the address of the owner."
      },
      "renounceOwnership()": {
        "details": "Allows the current owner to relinquish control of the contract."
      },
      "transferOwnership(address)": {
        "details": "Allows the current owner to transfer control of the contract to a newOwner.",
        "params": {
          "newOwner": "The address to transfer ownership to."
        }
      }
    }
  },
  "userdoc": {
    "methods": {
      "renounceOwnership()": {
        "notice": "Renouncing to ownership will leave the contract without an owner. It will not be possible to call the functions with the `onlyOwner` modifier anymore."
      }
    }
  }
}