{
  "contractName": "MinterRole",
  "abi": [
    {
      "anonymous": false,
      "inputs": [
        {
          "indexed": true,
          "name": "account",
          "type": "address"
        }
      ],
      "name": "MinterAdded",
      "type": "event"
    },
    {
      "anonymous": false,
      "inputs": [
        {
          "indexed": true,
          "name": "account",
          "type": "address"
        }
      ],
      "name": "MinterRemoved",
      "type": "event"
    },
    {
      "constant": false,
      "inputs": [
        {
          "name": "sender",
          "type": "address"
        }
      ],
      "name": "initialize",
      "outputs": [],
      "payable": false,
      "stateMutability": "nonpayable",
      "type": "function"
    },
    {
      "constant": true,
      "inputs": [
        {
          "name": "account",
          "type": "address"
        }
      ],
      "name": "isMinter",
      "outputs": [
        {
          "name": "",
          "type": "bool"
        }
      ],
      "payable": false,
      "stateMutability": "view",
      "type": "function"
    },
    {
      "constant": false,
      "inputs": [
        {
          "name": "account",
          "type": "address"
        }
      ],
      "name": "addMinter",
      "outputs": [],
      "payable": false,
      "stateMutability": "nonpayable",
      "type": "function"
    },
    {
      "constant": false,
      "inputs": [],
      "name": "renounceMinter",
      "outputs": [],
      "payable": false,
      "stateMutability": "nonpayable",
      "type": "function"
    }
  ],
  "bytecode": "0x608060405234801561001057600080fd5b506103d2806100206000396000f3fe6080604052600436106100485763ffffffff60e060020a600035041663983b2d56811461004d5780639865027514610082578063aa271e1a14610097578063c4d66de8146100de575b600080fd5b34801561005957600080fd5b506100806004803603602081101561007057600080fd5b5035600160a060020a0316610111565b005b34801561008e57600080fd5b50610080610131565b3480156100a357600080fd5b506100ca600480360360208110156100ba57600080fd5b5035600160a060020a031661013c565b604080519115158252519081900360200190f35b3480156100ea57600080fd5b506100806004803603602081101561010157600080fd5b5035600160a060020a0316610155565b61011a3361013c565b151561012557600080fd5b61012e8161023f565b50565b61013a33610287565b565b600061014f60338363ffffffff6102cf16565b92915050565b600054610100900460ff168061016e575061016e610306565b8061017c575060005460ff16155b15156101ec576040805160e560020a62461bcd02815260206004820152602e60248201527f436f6e747261637420696e7374616e63652068617320616c72656164792062656044820152609260020a6d195b881a5b9a5d1a585b1a5e995902606482015290519081900360840190fd5b60008054600161010061ff00198316811760ff1916919091179092550460ff166102158261013c565b1515610224576102248261023f565b600080549115156101000261ff001990921691909117905550565b61025060338263ffffffff61030c16565b604051600160a060020a038216907f6ae172837ea30b801fbfcdd4108aa1d5bf8ff775444fd70256b44e6bf3dfc3f690600090a250565b61029860338263ffffffff61035a16565b604051600160a060020a038216907fe94479a9f7e1952cc78f2d6baab678adc1b772d936c6583def489e524cb6669290600090a250565b6000600160a060020a03821615156102e657600080fd5b50600160a060020a03166000908152602091909152604090205460ff1690565b303b1590565b600160a060020a038116151561032157600080fd5b61032b82826102cf565b1561033557600080fd5b600160a060020a0316600090815260209190915260409020805460ff19166001179055565b600160a060020a038116151561036f57600080fd5b61037982826102cf565b151561038457600080fd5b600160a060020a0316600090815260209190915260409020805460ff1916905556fea165627a7a7230582039234806394c696436f178ab84433cb5a071098a54762a675c28328c2cd21bd40029",
  "source": "pragma solidity ^0.5.0;\n\nimport \"zos-lib/contracts/Initializable.sol\";\nimport \"../Roles.sol\";\n\n\ncontract MinterRole is Initializable {\n    using Roles for Roles.Role;\n\n    event MinterAdded(address indexed account);\n    event MinterRemoved(address indexed account);\n\n    Roles.Role private _minters;\n\n    function initialize(address sender) public initializer {\n        if (!isMinter(sender)) {\n            _addMinter(sender);\n        }\n    }\n\n    modifier onlyMinter() {\n        require(isMinter(msg.sender));\n        _;\n    }\n\n    function isMinter(address account) public view returns (bool) {\n        return _minters.has(account);\n    }\n\n    function addMinter(address account) public onlyMinter {\n        _addMinter(account);\n    }\n\n    function renounceMinter() public {\n        _removeMinter(msg.sender);\n    }\n\n    function _addMinter(address account) internal {\n        _minters.add(account);\n        emit MinterAdded(account);\n    }\n\n    function _removeMinter(address account) internal {\n        _minters.remove(account);\n        emit MinterRemoved(account);\n    }\n\n    uint256[50] private ______gap;\n}\n",
  "sourcePath": "openzeppelin-eth/contracts/access/roles/MinterRole.sol",
  "compiler": {
    "name": "solc",
    "version": "0.5.0+commit.1d4f565a.Emscripten.clang"
  },
  "schemaVersion": "3.0.2",
  "updatedAt": "2019-08-25T01:47:11.558Z",
  "devdoc": {
    "methods": {}
  },
  "userdoc": {
    "methods": {}
  }
}