{
  "contractName": "SortitionSumTreeFactory",
  "abi": [
    {
      "constant": false,
      "inputs": [
        {
          "name": "self",
          "type": "SortitionSumTreeFactory.SortitionSumTrees storage"
        },
        {
          "name": "_key",
          "type": "bytes32"
        },
        {
          "name": "_K",
          "type": "uint256"
        }
      ],
      "name": "createTree",
      "outputs": [],
      "payable": false,
      "stateMutability": "nonpayable",
      "type": "function"
    },
    {
      "constant": false,
      "inputs": [
        {
          "name": "self",
          "type": "SortitionSumTreeFactory.SortitionSumTrees storage"
        },
        {
          "name": "_key",
          "type": "bytes32"
        },
        {
          "name": "_value",
          "type": "uint256"
        },
        {
          "name": "_ID",
          "type": "bytes32"
        }
      ],
      "name": "set",
      "outputs": [],
      "payable": false,
      "stateMutability": "nonpayable",
      "type": "function"
    },
    {
      "constant": true,
      "inputs": [
        {
          "name": "self",
          "type": "SortitionSumTreeFactory.SortitionSumTrees storage"
        },
        {
          "name": "_key",
          "type": "bytes32"
        },
        {
          "name": "_cursor",
          "type": "uint256"
        },
        {
          "name": "_count",
          "type": "uint256"
        }
      ],
      "name": "queryLeafs",
      "outputs": [
        {
          "name": "startIndex",
          "type": "uint256"
        },
        {
          "name": "values",
          "type": "uint256[]"
        },
        {
          "name": "hasMore",
          "type": "bool"
        }
      ],
      "payable": false,
      "stateMutability": "view",
      "type": "function"
    },
    {
      "constant": true,
      "inputs": [
        {
          "name": "self",
          "type": "SortitionSumTreeFactory.SortitionSumTrees storage"
        },
        {
          "name": "_key",
          "type": "bytes32"
        },
        {
          "name": "_drawnNumber",
          "type": "uint256"
        }
      ],
      "name": "draw",
      "outputs": [
        {
          "name": "ID",
          "type": "bytes32"
        }
      ],
      "payable": false,
      "stateMutability": "view",
      "type": "function"
    },
    {
      "constant": true,
      "inputs": [
        {
          "name": "self",
          "type": "SortitionSumTreeFactory.SortitionSumTrees storage"
        },
        {
          "name": "_key",
          "type": "bytes32"
        },
        {
          "name": "_ID",
          "type": "bytes32"
        }
      ],
      "name": "stakeOf",
      "outputs": [
        {
          "name": "value",
          "type": "uint256"
        }
      ],
      "payable": false,
      "stateMutability": "view",
      "type": "function"
    }
  ],
  "bytecode": "0x6108f1610030600b82828239805160001a6073146000811461002057610022565bfe5b5030600052607381538281f3fe730000000000000000000000000000000000000000301460806040526004361061006a5763ffffffff60e060020a6000350416632e25c38a811461006f57806365b81f4f146100ad5780637521ccb11461014257806388c1d4671461017d5780639075789e146101a6575b600080fd5b81801561007b57600080fd5b506100ab6004803603608081101561009257600080fd5b50803590602081013590604081013590606001356101dc565b005b6100dc600480360360808110156100c357600080fd5b50803590602081013590604081013590606001356104ce565b604051808481526020018060200183151515158152602001828103825284818151815260200191508051906020019060200280838360005b8381101561012c578181015183820152602001610114565b5050505090500194505050505060405180910390f35b61016b6004803603606081101561015857600080fd5b50803590602081013590604001356105d2565b60408051918252519081900360200190f35b61016b6004803603606081101561019357600080fd5b5080359060208101359060400135610625565b8180156101b257600080fd5b506100ab600480360360608110156101c957600080fd5b50803590602081013590604001356106ec565b600083815260208581526040808320848452600381019092529091205480151561037157831561036c57600182015415156102e257506002810180546001808201835560009283526020909220810185905590811480159061024c57508154600019820181151561024957fe5b06155b156102dd5781546000908281151561026057fe5b046000818152600485016020526040902054600285018054929350909160018501919081908590811061028f57fe5b60009182526020808320909101548354600181018555938352818320909301929092559384526004860180825260408086208690558486526003880183528086208490559285529052909120555b610339565b60018201805460001981019081106102f657fe5b60009182526020909120015460018301805491925061031990600019830161087b565b5083826002018281548110151561032c57fe5b6000918252602090912001555b6000838152600383016020908152604080832084905583835260048501909152902083905561036c8686836001886107e1565b6104c6565b831515610408576000826002018281548110151561038b57fe5b90600052602060002001549050600083600201838154811015156103ab57fe5b600091825260208083209091019290925560018086018054918201815582528282200184905585815260038501825260408082208290558482526004860190925290812081905561040290889088908590856107e1565b506104c6565b6002820180548290811061041857fe5b9060005260206000200154841415156104c657600084836002018381548110151561043f57fe5b9060005260206000200154111590506000816104785785846002018481548110151561046757fe5b906000526020600020015403610496565b6002840180548490811061048857fe5b906000526020600020015486035b90508584600201848154811015156104aa57fe5b6000918252602090912001556104c388888585856107e1565b50505b505050505050565b60008381526020859052604081206060908290815b6002820154811015610510576002820154825482026001011061050857809450610510565b6001016104e3565b50600281015484870190868201116105285785610531565b60028201548190035b60405190808252806020026020018201604052801561055a578160200160208202803883390190505b5093506000815b60028401548110156105c457878210156105b3576002840180548290811061058557fe5b9060005260206000200154868381518110151561059e57fe5b602090810290910101526001909101906105bc565b600194506105c4565b600101610561565b505050509450945094915050565b600082815260208481526040808320848452600381019092528220548015156105fe576000925061061c565b6002820180548290811061060e57fe5b906000526020600020015492505b50509392505050565b6000828152602084905260408120600281018054839182918290811061064757fe5b90600052602060002001548581151561065c57fe5b0690505b60028301548354830260010110156106d15760015b835481116106cb578354600285018054918502830191600091908390811061069957fe5b9060005260206000200154905080841015156106b95780840393506106c1565b5092506106cb565b5050600101610675565b50610660565b50600090815260049091016020526040902054949350505050565b600082815260208490526040902080541561074b576040805160e560020a62461bcd0281526020600482015260146024820152606160020a732a3932b29030b63932b0b23c9032bc34b9ba399702604482015290519081900360640190fd5b600182116107a3576040805160e560020a62461bcd02815260206004820152601b60248201527f4b206d7573742062652067726561746572207468616e206f6e652e0000000000604482015290519081900360640190fd5b81815560006107b5600183018261087b565b5060006107c5600283018261087b565b5060020180546001810182556000918252602082200155505050565b6000848152602086905260409020835b8015610872578154600019820181151561080757fe5b049050836108325782826002018281548110151561082157fe5b906000526020600020015403610851565b82826002018281548110151561084457fe5b9060005260206000200154015b6002830180548390811061086157fe5b6000918252602090912001556107f1565b50505050505050565b81548183558181111561089f5760008381526020902061089f9181019083016108a4565b505050565b6108c291905b808211156108be57600081556001016108aa565b5090565b9056fea165627a7a72305820b070e63cd3cea3d6795daa4b0cb996d7f01dd85d1931e98bfc8dc4dcf7611a760029",
  "source": "/**\n *  @reviewers: [@clesaege, @unknownunknown1, @ferittuncer]\n *  @auditors: []\n *  @bounties: [<14 days 10 ETH max payout>]\n *  @deployments: []\n */\n\npragma solidity ^0.5.0;\n\n/**\n *  @title SortitionSumTreeFactory\n *  @author Enrique Piqueras - <epiquerass@gmail.com>\n *  @dev A factory of trees that keep track of staked values for sortition.\n */\nlibrary SortitionSumTreeFactory {\n    /* Structs */\n\n    struct SortitionSumTree {\n        uint K; // The maximum number of childs per node.\n        // We use this to keep track of vacant positions in the tree after removing a leaf. This is for keeping the tree as balanced as possible without spending gas on moving nodes around.\n        uint[] stack;\n        uint[] nodes;\n        // Two-way mapping of IDs to node indexes. Note that node index 0 is reserved for the root node, and means the ID does not have a node.\n        mapping(bytes32 => uint) IDsToNodeIndexes;\n        mapping(uint => bytes32) nodeIndexesToIDs;\n    }\n\n    /* Storage */\n\n    struct SortitionSumTrees {\n        mapping(bytes32 => SortitionSumTree) sortitionSumTrees;\n    }\n\n    /* Public */\n\n    /**\n     *  @dev Create a sortition sum tree at the specified key.\n     *  @param _key The key of the new tree.\n     *  @param _K The number of children each node in the tree should have.\n     */\n    function createTree(SortitionSumTrees storage self, bytes32 _key, uint _K) public {\n        SortitionSumTree storage tree = self.sortitionSumTrees[_key];\n        require(tree.K == 0, \"Tree already exists.\");\n        require(_K > 1, \"K must be greater than one.\");\n        tree.K = _K;\n        tree.stack.length = 0;\n        tree.nodes.length = 0;\n        tree.nodes.push(0);\n    }\n\n    /**\n     *  @dev Set a value of a tree.\n     *  @param _key The key of the tree.\n     *  @param _value The new value.\n     *  @param _ID The ID of the value.\n     *  `O(log_k(n))` where\n     *  `k` is the maximum number of childs per node in the tree,\n     *   and `n` is the maximum number of nodes ever appended.\n     */\n    function set(SortitionSumTrees storage self, bytes32 _key, uint _value, bytes32 _ID) public {\n        SortitionSumTree storage tree = self.sortitionSumTrees[_key];\n        uint treeIndex = tree.IDsToNodeIndexes[_ID];\n\n        if (treeIndex == 0) { // No existing node.\n            if (_value != 0) { // Non zero value.\n                // Append.\n                // Add node.\n                if (tree.stack.length == 0) { // No vacant spots.\n                    // Get the index and append the value.\n                    treeIndex = tree.nodes.length;\n                    tree.nodes.push(_value);\n\n                    // Potentially append a new node and make the parent a sum node.\n                    if (treeIndex != 1 && (treeIndex - 1) % tree.K == 0) { // Is first child.\n                        uint parentIndex = treeIndex / tree.K;\n                        bytes32 parentID = tree.nodeIndexesToIDs[parentIndex];\n                        uint newIndex = treeIndex + 1;\n                        tree.nodes.push(tree.nodes[parentIndex]);\n                        delete tree.nodeIndexesToIDs[parentIndex];\n                        tree.IDsToNodeIndexes[parentID] = newIndex;\n                        tree.nodeIndexesToIDs[newIndex] = parentID;\n                    }\n                } else { // Some vacant spot.\n                    // Pop the stack and append the value.\n                    treeIndex = tree.stack[tree.stack.length - 1];\n                    tree.stack.length--;\n                    tree.nodes[treeIndex] = _value;\n                }\n\n                // Add label.\n                tree.IDsToNodeIndexes[_ID] = treeIndex;\n                tree.nodeIndexesToIDs[treeIndex] = _ID;\n\n                updateParents(self, _key, treeIndex, true, _value);\n            }\n        } else { // Existing node.\n            if (_value == 0) { // Zero value.\n                // Remove.\n                // Remember value and set to 0.\n                uint value = tree.nodes[treeIndex];\n                tree.nodes[treeIndex] = 0;\n\n                // Push to stack.\n                tree.stack.push(treeIndex);\n\n                // Clear label.\n                delete tree.IDsToNodeIndexes[_ID];\n                delete tree.nodeIndexesToIDs[treeIndex];\n\n                updateParents(self, _key, treeIndex, false, value);\n            } else if (_value != tree.nodes[treeIndex]) { // New, non zero value.\n                // Set.\n                bool plusOrMinus = tree.nodes[treeIndex] <= _value;\n                uint plusOrMinusValue = plusOrMinus ? _value - tree.nodes[treeIndex] : tree.nodes[treeIndex] - _value;\n                tree.nodes[treeIndex] = _value;\n\n                updateParents(self, _key, treeIndex, plusOrMinus, plusOrMinusValue);\n            }\n        }\n    }\n\n    /* Public Views */\n\n    /**\n     *  @dev Query the leaves of a tree. Note that if `startIndex == 0`, the tree is empty and the root node will be returned.\n     *  @param _key The key of the tree to get the leaves from.\n     *  @param _cursor The pagination cursor.\n     *  @param _count The number of items to return.\n     *  @return The index at which leaves start, the values of the returned leaves, and whether there are more for pagination.\n     *  `O(n)` where\n     *  `n` is the maximum number of nodes ever appended.\n     */\n    function queryLeafs(\n        SortitionSumTrees storage self,\n        bytes32 _key,\n        uint _cursor,\n        uint _count\n    ) public view returns(uint startIndex, uint[] memory values, bool hasMore) {\n        SortitionSumTree storage tree = self.sortitionSumTrees[_key];\n\n        // Find the start index.\n        for (uint i = 0; i < tree.nodes.length; i++) {\n            if ((tree.K * i) + 1 >= tree.nodes.length) {\n                startIndex = i;\n                break;\n            }\n        }\n\n        // Get the values.\n        uint loopStartIndex = startIndex + _cursor;\n        values = new uint[](loopStartIndex + _count > tree.nodes.length ? tree.nodes.length - loopStartIndex : _count);\n        uint valuesIndex = 0;\n        for (uint j = loopStartIndex; j < tree.nodes.length; j++) {\n            if (valuesIndex < _count) {\n                values[valuesIndex] = tree.nodes[j];\n                valuesIndex++;\n            } else {\n                hasMore = true;\n                break;\n            }\n        }\n    }\n\n    /**\n     *  @dev Draw an ID from a tree using a number. Note that this function reverts if the sum of all values in the tree is 0.\n     *  @param _key The key of the tree.\n     *  @param _drawnNumber The drawn number.\n     *  @return The drawn ID.\n     *  `O(k * log_k(n))` where\n     *  `k` is the maximum number of childs per node in the tree,\n     *   and `n` is the maximum number of nodes ever appended.\n     */\n    function draw(SortitionSumTrees storage self, bytes32 _key, uint _drawnNumber) public view returns(bytes32 ID) {\n        SortitionSumTree storage tree = self.sortitionSumTrees[_key];\n        uint treeIndex = 0;\n        uint currentDrawnNumber = _drawnNumber % tree.nodes[0];\n\n        while ((tree.K * treeIndex) + 1 < tree.nodes.length)  // While it still has children.\n            for (uint i = 1; i <= tree.K; i++) { // Loop over children.\n                uint nodeIndex = (tree.K * treeIndex) + i;\n                uint nodeValue = tree.nodes[nodeIndex];\n\n                if (currentDrawnNumber >= nodeValue) currentDrawnNumber -= nodeValue; // Go to the next child.\n                else { // Pick this child.\n                    treeIndex = nodeIndex;\n                    break;\n                }\n            }\n        \n        ID = tree.nodeIndexesToIDs[treeIndex];\n    }\n\n    /** @dev Gets a specified ID's associated value.\n     *  @param _key The key of the tree.\n     *  @param _ID The ID of the value.\n     *  @return The associated value.\n     */\n    function stakeOf(SortitionSumTrees storage self, bytes32 _key, bytes32 _ID) public view returns(uint value) {\n        SortitionSumTree storage tree = self.sortitionSumTrees[_key];\n        uint treeIndex = tree.IDsToNodeIndexes[_ID];\n\n        if (treeIndex == 0) value = 0;\n        else value = tree.nodes[treeIndex];\n    }\n\n    /* Private */\n\n    /**\n     *  @dev Update all the parents of a node.\n     *  @param _key The key of the tree to update.\n     *  @param _treeIndex The index of the node to start from.\n     *  @param _plusOrMinus Wether to add (true) or substract (false).\n     *  @param _value The value to add or substract.\n     *  `O(log_k(n))` where\n     *  `k` is the maximum number of childs per node in the tree,\n     *   and `n` is the maximum number of nodes ever appended.\n     */\n    function updateParents(SortitionSumTrees storage self, bytes32 _key, uint _treeIndex, bool _plusOrMinus, uint _value) private {\n        SortitionSumTree storage tree = self.sortitionSumTrees[_key];\n\n        uint parentIndex = _treeIndex;\n        while (parentIndex != 0) {\n            parentIndex = (parentIndex - 1) / tree.K;\n            tree.nodes[parentIndex] = _plusOrMinus ? tree.nodes[parentIndex] + _value : tree.nodes[parentIndex] - _value;\n        }\n    }\n}\n",
  "sourcePath": "kleros/contracts/data-structures/SortitionSumTreeFactory.sol",
  "compiler": {
    "name": "solc",
    "version": "0.5.0+commit.1d4f565a.Emscripten.clang"
  },
  "schemaVersion": "3.0.2",
  "updatedAt": "2019-08-25T01:47:11.553Z",
  "devdoc": {
    "author": "Enrique Piqueras - <epiquerass@gmail.com>",
    "details": "A factory of trees that keep track of staked values for sortition.",
    "methods": {
      "createTree(SortitionSumTreeFactory.SortitionSumTrees storage,bytes32,uint256)": {
        "details": "Create a sortition sum tree at the specified key.",
        "params": {
          "_K": "The number of children each node in the tree should have.",
          "_key": "The key of the new tree."
        }
      },
      "draw(SortitionSumTreeFactory.SortitionSumTrees storage,bytes32,uint256)": {
        "details": "Draw an ID from a tree using a number. Note that this function reverts if the sum of all values in the tree is 0.",
        "params": {
          "_drawnNumber": "The drawn number.",
          "_key": "The key of the tree."
        },
        "return": "The drawn ID. `O(k * log_k(n))` where `k` is the maximum number of childs per node in the tree,  and `n` is the maximum number of nodes ever appended."
      },
      "queryLeafs(SortitionSumTreeFactory.SortitionSumTrees storage,bytes32,uint256,uint256)": {
        "details": "Query the leaves of a tree. Note that if `startIndex == 0`, the tree is empty and the root node will be returned.",
        "params": {
          "_count": "The number of items to return.",
          "_cursor": "The pagination cursor.",
          "_key": "The key of the tree to get the leaves from."
        },
        "return": "The index at which leaves start, the values of the returned leaves, and whether there are more for pagination. `O(n)` where `n` is the maximum number of nodes ever appended."
      },
      "set(SortitionSumTreeFactory.SortitionSumTrees storage,bytes32,uint256,bytes32)": {
        "details": "Set a value of a tree.",
        "params": {
          "_ID": "The ID of the value. `O(log_k(n))` where `k` is the maximum number of childs per node in the tree,  and `n` is the maximum number of nodes ever appended.",
          "_key": "The key of the tree.",
          "_value": "The new value."
        }
      },
      "stakeOf(SortitionSumTreeFactory.SortitionSumTrees storage,bytes32,bytes32)": {
        "details": "Gets a specified ID's associated value.",
        "params": {
          "_ID": "The ID of the value.",
          "_key": "The key of the tree."
        },
        "return": "The associated value."
      }
    },
    "title": "SortitionSumTreeFactory"
  },
  "userdoc": {
    "methods": {}
  }
}